{
  "contractName": "WaterContract",
  "abi": [
    {
      "inputs": [
        {
          "internalType": "uint256",
          "name": "flags",
          "type": "uint256"
        },
        {
          "internalType": "uint256",
          "name": "flag",
          "type": "uint256"
        }
      ],
      "name": "getFlag",
      "outputs": [
        {
          "internalType": "bool",
          "name": "",
          "type": "bool"
        }
      ],
      "stateMutability": "pure",
      "type": "function"
    },
    {
      "inputs": [],
      "name": "irrigation",
      "outputs": [
        {
          "internalType": "bool",
          "name": "",
          "type": "bool"
        }
      ],
      "stateMutability": "view",
      "type": "function"
    },
    {
      "inputs": [
        {
          "internalType": "contract DaoRegistry",
          "name": "dao",
          "type": "address"
        },
        {
          "internalType": "address",
          "name": "_addr",
          "type": "address"
        }
      ],
      "name": "isActiveMember",
      "outputs": [
        {
          "internalType": "bool",
          "name": "",
          "type": "bool"
        }
      ],
      "stateMutability": "view",
      "type": "function"
    },
    {
      "inputs": [
        {
          "internalType": "address",
          "name": "addr",
          "type": "address"
        }
      ],
      "name": "isNotReservedAddress",
      "outputs": [
        {
          "internalType": "bool",
          "name": "",
          "type": "bool"
        }
      ],
      "stateMutability": "pure",
      "type": "function"
    },
    {
      "inputs": [
        {
          "internalType": "address",
          "name": "addr",
          "type": "address"
        }
      ],
      "name": "isNotZeroAddress",
      "outputs": [
        {
          "internalType": "bool",
          "name": "",
          "type": "bool"
        }
      ],
      "stateMutability": "pure",
      "type": "function"
    },
    {
      "inputs": [
        {
          "internalType": "uint256",
          "name": "flags",
          "type": "uint256"
        },
        {
          "internalType": "uint256",
          "name": "flag",
          "type": "uint256"
        },
        {
          "internalType": "bool",
          "name": "value",
          "type": "bool"
        }
      ],
      "name": "setFlag",
      "outputs": [
        {
          "internalType": "uint256",
          "name": "",
          "type": "uint256"
        }
      ],
      "stateMutability": "pure",
      "type": "function"
    },
    {
      "inputs": [],
      "name": "warning",
      "outputs": [
        {
          "internalType": "bool",
          "name": "",
          "type": "bool"
        }
      ],
      "stateMutability": "view",
      "type": "function"
    },
    {
      "inputs": [
        {
          "internalType": "uint256",
          "name": "humidity",
          "type": "uint256"
        },
        {
          "internalType": "contract DaoRegistry",
          "name": "dao",
          "type": "address"
        }
      ],
      "name": "triggerWatering",
      "outputs": [],
      "stateMutability": "nonpayable",
      "type": "function"
    },
    {
      "inputs": [
        {
          "internalType": "uint256",
          "name": "humidity",
          "type": "uint256"
        },
        {
          "internalType": "contract DaoRegistry",
          "name": "dao",
          "type": "address"
        }
      ],
      "name": "stopWatering",
      "outputs": [],
      "stateMutability": "nonpayable",
      "type": "function"
    },
    {
      "inputs": [],
      "name": "getIrrigation",
      "outputs": [
        {
          "internalType": "bool",
          "name": "",
          "type": "bool"
        }
      ],
      "stateMutability": "view",
      "type": "function"
    },
    {
      "inputs": [],
      "name": "getWarning",
      "outputs": [
        {
          "internalType": "bool",
          "name": "",
          "type": "bool"
        }
      ],
      "stateMutability": "view",
      "type": "function"
    }
  ],
  "bytecode": "0x60806040526000805461ffff1916905534801561001b57600080fd5b50610a558061002b6000396000f3fe608060405234801561001057600080fd5b50600436106100c95760003560e01c8063ca0f463311610081578063e22739831161005b578063e22739831461016a578063ef6a249914610172578063fc25803114610185576100c9565b8063ca0f46331461013c578063cf0682bc1461014f578063da486d7914610157576100c9565b80639a22ff45116100b25780639a22ff45146100ff578063b244a41d14610107578063c576770c14610127576100c9565b80637e177a8a146100ce5780638ecf7720146100ec575b600080fd5b6100d6610198565b6040516100e391906107dd565b60405180910390f35b6100d66100fa3660046106e0565b6101a1565b6100d661046e565b61011a61011536600461075d565b610477565b6040516100e391906107e8565b61013a610135366004610718565b6104d3565b005b6100d661014a36600461068c565b610511565b6100d661052c565b61013a610165366004610718565b61053a565b6100d66105a9565b6100d661018036600461068c565b6105b7565b6100d661019336600461073c565b610622565b60005460ff1681565b6000808373ffffffffffffffffffffffffffffffffffffffff1663fefbd8757fea0ca03c7adbe41dc655fec28a9209dc8e6e042f3d991a67765ba285b9cf73a06040518263ffffffff1660e01b81526004016101fd91906107e8565b60206040518083038186803b15801561021557600080fd5b505afa158015610229573d6000803e3d6000fd5b505050506040513d601f19601f8201168201806040525081019061024d91906106a8565b905073ffffffffffffffffffffffffffffffffffffffff8116156103c2576040517fc89bb8ba00000000000000000000000000000000000000000000000000000000815260009073ffffffffffffffffffffffffffffffffffffffff86169063c89bb8ba906102c0908790600401610795565b60206040518083038186803b1580156102d857600080fd5b505afa1580156102ec573d6000803e3d6000fd5b505050506040513d601f19601f8201168201806040525081019061031091906106a8565b905060008273ffffffffffffffffffffffffffffffffffffffff1663f7888aec83620ff1ce6040518363ffffffff1660e01b81526004016103529291906107b6565b60206040518083038186803b15801561036a57600080fd5b505afa15801561037e573d6000803e3d6000fd5b505050506040513d601f19601f820116820180604052508101906103a291906106a8565b73ffffffffffffffffffffffffffffffffffffffff161192505050610468565b6040517fa230c52400000000000000000000000000000000000000000000000000000000815273ffffffffffffffffffffffffffffffffffffffff85169063a230c52490610414908690600401610795565b60206040518083038186803b15801561042c57600080fd5b505afa158015610440573d6000803e3d6000fd5b505050506040513d601f19601f8201168201806040525081019061046491906106c4565b9150505b92915050565b60005460ff1690565b60008115156104868585610622565b1515146104c95781156104af5761049e836002610886565b6104a89085610828565b90506104cc565b6104ba836002610886565b6104a8908561096d565b6104cc565b50825b9392505050565b806104de813361063f565b5050600080547fffffffffffffffffffffffffffffffffffffffffffffffffffffffffffff000016905542600155600455565b73ffffffffffffffffffffffffffffffffffffffff16151590565b600054610100900460ff1681565b80610545813361063f565b50506000805461010060017fffffffffffffffffffffffffffffffffffffffffffffffffffffffffffffff0090921682177fffffffffffffffffffffffffffffffffffffffffffffffffffffffffffff00ff16179091554290556014600255600355565b600054610100900460ff1690565b600073ffffffffffffffffffffffffffffffffffffffff821661dead148015906105f9575073ffffffffffffffffffffffffffffffffffffffff821661babe14155b8015610468575073ffffffffffffffffffffffffffffffffffffffff8216614bec141592915050565b6000610635600260ff841685901c610984565b6001149392505050565b61064982826101a1565b610688576040517f08c379a000000000000000000000000000000000000000000000000000000000815260040161067f906107f1565b60405180910390fd5b5050565b60006020828403121561069d578081fd5b81356104cc816109ec565b6000602082840312156106b9578081fd5b81516104cc816109ec565b6000602082840312156106d5578081fd5b81516104cc81610a11565b600080604083850312156106f2578081fd5b82356106fd816109ec565b9150602083013561070d816109ec565b809150509250929050565b6000806040838503121561072a578182fd5b82359150602083013561070d816109ec565b6000806040838503121561074e578182fd5b50508035926020909101359150565b600080600060608486031215610771578081fd5b8335925060208401359150604084013561078a81610a11565b809150509250925092565b73ffffffffffffffffffffffffffffffffffffffff91909116815260200190565b73ffffffffffffffffffffffffffffffffffffffff92831681529116602082015260400190565b901515815260200190565b90815260200190565b6020808252600a908201527f6f6e6c794d656d62657200000000000000000000000000000000000000000000604082015260600190565b6000821982111561083b5761083b6109bd565b500190565b80825b6001808611610852575061087d565b818704821115610864576108646109bd565b8086161561087157918102915b9490941c938002610843565b94509492505050565b60006104cc7fffffffffffffffffffffffffffffffffffffffffffffffffffffffffffffffff84846000826108bd575060016104cc565b816108ca575060006104cc565b81600181146108e057600281146108ea57610917565b60019150506104cc565b60ff8411156108fb576108fb6109bd565b6001841b915084821115610911576109116109bd565b506104cc565b5060208310610133831016604e8410600b8410161715610945575081810a838111156104c4576104c46109bd565b6109528484846001610840565b808604821115610964576109646109bd565b02949350505050565b60008282101561097f5761097f6109bd565b500390565b6000826109b8577f4e487b710000000000000000000000000000000000000000000000000000000081526012600452602481fd5b500690565b7f4e487b7100000000000000000000000000000000000000000000000000000000600052601160045260246000fd5b73ffffffffffffffffffffffffffffffffffffffff81168114610a0e57600080fd5b50565b8015158114610a0e57600080fdfea2646970667358221220ea0323a13bc154a982c65e40e6c851edb145f00f58b89619d38d87f0028630df64736f6c63430008000033",
  "immutableReferences": {},
  "source": "pragma solidity ^0.8.0;\n\n// SPDX-License-Identifier: MIT\n\nimport \"../core/DaoRegistry.sol\";\nimport \"../core/DaoConstants.sol\";\nimport \"../guards/AdapterGuard.sol\";\nimport \"../guards/MemberGuard.sol\";\n\ncontract WaterContract is DaoConstants, AdapterGuard, MemberGuard {\n    bool public irrigation = false;\n    bool public warning = false;\n    uint256 timestamp;\n    uint256 wateringTime;\n    uint256 triggerHumidity;\n    uint256 newHumidity;\n\n    function triggerWatering(uint256 humidity, DaoRegistry dao)\n        external\n        onlyMember(dao)\n    {\n        irrigation = true;\n        warning = true;\n        timestamp = block.timestamp;\n        wateringTime = 20;\n        triggerHumidity = humidity;\n    }\n\n    function stopWatering(uint256 humidity, DaoRegistry dao)\n        external\n        onlyMember(dao)\n    {\n        irrigation = false;\n        warning = false;\n        timestamp = block.timestamp;\n        newHumidity = humidity;\n    }\n\n    function getIrrigation() public view returns (bool) {\n        return irrigation;\n    }\n\n    function getWarning() public view returns (bool) {\n        return warning;\n    }\n}\n",
  "sourcePath": "/Users/keno/repos/gartenlaube-contracts/contracts/adapters/Water.sol",
  "compiler": {
    "name": "solc",
    "version": "0.8.0+commit.c7dfd78e.Emscripten.clang"
  },
  "schemaVersion": "3.3.4",
  "updatedAt": "2021-06-28T12:07:49.239Z",
  "devdoc": {
    "kind": "dev",
    "methods": {},
    "version": 1
  },
  "userdoc": {
    "kind": "user",
    "methods": {
      "isNotReservedAddress(address)": {
        "notice": "Checks if a given address is reserved."
      },
      "isNotZeroAddress(address)": {
        "notice": "Checks if a given address is zeroed."
      }
    },
    "version": 1
  }
}